:100000000C945E000C9486000C9486000C94860080
:100010000C9486000C9486000C9486000C94860048
:100020000C9486000C9486000C9486000C94860038
:100030000C9486000C9486000C9486000C94860028
:100040000C94C5020C9486000C9435030C940F0399
:100050000C9486000C9486000C9486000C94860008
:100060000C9486000C948600000000080002010039
:100070000003040700000000000000000000000072
:10008000250028002B0000000000240027002A0083
:10009000040404040404040402020202020203032E
:1000A0000303030301020408102040800102040836
:1000B00010200102040810206703350511241FBE1B
:1000C000CFEFD8E0DEBFCDBF22E0A2E5B1E001C0B6
:1000D0001D92A230B207E1F711E0A0E0B1E0E6E046
:1000E000FFE002C005900D92A235B107D9F710E0EC
:1000F000CDE5D0E004C02197FE010E947505CC3506
:10010000D107C9F70E94DD030C9476070C94000018
:1001100090E0FC01EC55FF4F249180579F4FFC016C
:100120008491882399F090E0880F991FFC01EA5789
:10013000FF4FA591B491FC01E458FF4F8591949134
:100140008FB7F894EC91E22BEC938FBF089508954C
:10015000AF92BF92CF92DF92EF92FF920F931F93D5
:10016000CF93DF936C017B018B01040F151FEB0113
:100170005E01AE18BF08C017D10759F06991D601CA
:10018000ED91FC910190F081E02DC6010995892B3C
:1001900079F7C501DF91CF911F910F91FF90EF90FB
:1001A000DF90CF90BF90AF900895FC01538D448DA8
:1001B000252F30E0842F90E0821B930B541710F012
:1001C000CF96089501970895FC01918D828D98171F
:1001D00061F0A28DAE0FBF2FB11D5D968C91928DF7
:1001E0009F5F9F73928F90E008958FEF9FEF089528
:1001F0002FB7F8948091570190915801A09159011F
:10020000B0915A012FBF8093630190936401A09332
:100210006501B09366018BE591E00E94E40097FFD1
:1002200026C02FB7F8948091570190915801A09162
:100230005901B0915A012FBF40916301509164015F
:100240006091650170916601841B950BA60BB70B3D
:1002500040915F0150916001609161017091620174
:1002600084179507A607B707B0F28FEF9FEF0895A1
:10027000FC01918D828D981731F0828DE80FF11D70
:10028000858D90E008958FEF9FEF0895FC01918D8B
:10029000228D892F90E0805C9F4F821B91098F7384
:1002A000992708958BE591E00E94460121E0892B72
:1002B00009F420E0822F089580E090E0892B29F056
:1002C0000E94520181110C9400000895FC01A48D3C
:1002D000A80FB92FB11DA35ABF4F2C91848D90E068
:1002E00001968F739927848FA689B7892C93A0894B
:1002F000B1898C91837080648C93938D848D9813D5
:1003000006C00288F389E02D80818F7D8083089567
:10031000EF92FF920F931F93CF93DF93EC0181E055
:10032000888F9B8D8C8D98131AC0E889F9898081FC
:1003300085FF15C09FB7F894EE89FF896083E8892F
:10034000F98980818370806480839FBF81E090E021
:10035000DF91CF911F910F91FF90EF900895F62EAE
:100360000B8D10E00F5F1F4F0F731127E02E8C8D48
:100370008E110CC00FB607FCFACFE889F98980818D
:1003800085FFF5CFCE010E946601F1CFEB8DEC0F1A
:10039000FD2FF11DE35AFF4FF0829FB7F8940B8FAA
:1003A000EA89FB8980818062CFCFCF93DF93EC0114
:1003B000888D8823B9F0AA89BB89E889F9898C914D
:1003C00085FD03C0808186FD0DC00FB607FCF7CF09
:1003D0008C9185FFF2CF808185FFEDCFCE010E9409
:1003E0006601E9CFDF91CF91089590E0FC01E859D3
:1003F000FF4F2491FC01EC55FF4F3491FC01E05775
:10040000FF4FE491EE23C9F0222339F0233001F1AC
:10041000A8F4213019F1223029F1F0E0EE0FFF1F8E
:10042000E458FF4FA591B4918FB7F894EC91611106
:1004300026C030953E233C938FBF08952730A9F006
:100440002830C9F0243049F7809180008F7D03C0A7
:10045000809180008F7780938000DFCF84B58F7785
:1004600084BDDBCF84B58F7DFBCF8091B0008F77CB
:100470008093B000D2CF8091B0008F7DF9CF3E2B1A
:10048000DACF1F93CF93DF93182FEB010E948800E0
:10049000209739F460E0812FDF91CF911F910C9468
:1004A000F501CF3FD10511F461E0F5CFE12FF0E088
:1004B000E859FF4FE491E33031F140F4E130B1F01D
:1004C000E230E1F0C038D1057CF7E4CFE73029F124
:1004D000E83059F1E430B1F7809180008062809378
:1004E0008000D0938B00C0938A0004C084B58068DC
:1004F00084BDC7BDDF91CF911F91089584B58062FF
:1005000084BDC8BDF7CF8091800080688093800053
:10051000D0938900C0938800EDCF8091B0008068AF
:100520008093B000C093B300E5CF8091B0008062AB
:100530008093B000C093B400DDCF0F931F93CF938F
:10054000DF93EC0188819981009759F02A813B81E2
:100550002617370730F081E0DF91CF911F910F917F
:1005600008958B016F5F7F4F0E94A006009759F09E
:10057000998388831B830A832C813D81232B59F720
:10058000FC011082E8CF80E0E7CF1F920F920FB6F8
:100590000F9211242F933F938F939F93AF93BF9309
:1005A0008091570190915801A0915901B0915A0141
:1005B0003091560123E0230F2D3758F50196A11DE8
:1005C000B11D209356018093570190935801A09339
:1005D0005901B0935A018091520190915301A09119
:1005E0005401B09155010196A11DB11D8093520196
:1005F00090935301A0935401B0935501BF91AF91D3
:100600009F918F913F912F910F900FBE0F901F9050
:10061000189526E8230F0296A11DB11DD2CF1F9277
:100620000F920FB60F9211242F933F934F935F9326
:100630006F937F938F939F93AF93BF93EF93FF93AA
:100640008BE591E00E946601FF91EF91BF91AF9120
:100650009F918F917F916F915F914F913F912F91DA
:100660000F900FBE0F901F9018951F920F920FB60C
:100670000F9211242F938F939F93EF93FF93E09109
:100680006B01F0916C018081E0917101F091720138
:1006900082FD1BC09081809174018F5F8F732091C8
:1006A0007501821741F0E0917401F0E0E55AFE4FC8
:1006B000958F80937401FF91EF919F918F912F916E
:1006C0000F900FBE0F901F9018958081F4CF10925D
:1006D0005E0110925D0188EE93E0A0E0B0E08093AF
:1006E0005F0190936001A0936101B09362018AE081
:1006F00091E090935C0180935B0185EC90E0909396
:1007000068018093670184EC90E090936A01809384
:10071000690180EC90E090936C0180936B0181EC17
:1007200090E090936E0180936D0182EC90E0909345
:10073000700180936F0186EC90E09093720180933A
:10074000710110927401109275011092760110924D
:1007500077011092F9011092F8011092FB011092AA
:10076000FA011092FD011092FC0170E060E088EF48
:1007700091E00E949D022091F8013091F9018111D0
:1007800013C02115310519F0C9010E9417061092F6
:10079000F9011092F8011092FD011092FC011092E3
:1007A000FB011092FA0108951092FD011092FC01D4
:1007B0006DE471E0C9010C946F07CF93DF93CDB75F
:1007C000DEB728970FB6F894DEBF0FBECDBF789482
:1007D00084B5826084BD84B5816084BD85B5826046
:1007E00085BD85B5816085BD80916E0081608093F7
:1007F0006E00109281008091810082608093810060
:10080000809181008160809381008091800081606F
:10081000809380008091B10084608093B1008091CA
:10082000B00081608093B00080917A0084608093F2
:100830007A0080917A00826080937A0080917A00B9
:10084000816080937A0080917A00806880937A003A
:100850001092C100E0916B01F0916C0182E0808305
:10086000E0916701F09168011082E0916901F091D7
:100870006A018FEC808310927301E0916F01F09117
:10088000700186E08083E0916D01F0916E018081BE
:1008900080618083E0916D01F0916E0180818860BC
:1008A0008083E0916D01F0916E018081806880838A
:1008B000E0916D01F0916E0180818F7D80838EE0EB
:1008C0000E94880080E0E82E80E0F82E42E350E0AD
:1008D00068E171E08BE591E00E94A80042E050E001
:1008E0006BE471E08BE591E00E94A8008BE591E05C
:1008F0000E944601892BD1F31A8219821C821B8225
:100900001E821D8270E060E0CE0101960E949D0271
:1009100029813A8181112BC02115310519F0C901B6
:100920000E9417061A8219821E821D821C821B8257
:100930000E94F80097FD23C08F8318860D811E81C9
:100940000F5F1F4FB801CE0101960E949D028823C0
:1009500079F329813A818D819E81BE01695F7F4F44
:10096000820F931F0E946F071E830D83E1CF1E82AB
:100970001D826DE471E0C9010E946F07D9CF80919B
:10098000F8019091F901009709F458C069817A81C2
:100990006115710509F450C04091FA015091FB01B5
:1009A0002D813E814217530708F446C00E946F070D
:1009B0008D819E819093FD018093FC011E821D829A
:1009C00089819A81009711F00E9417068091FC019D
:1009D0009091FD01892B79F06EE471E08091F8012E
:1009E0009091F9010E946607892B29F470E060E07C
:1009F0008EE00E9441028091FC019091FD01892BC3
:100A000079F060E571E08091F8019091F9010E9420
:100A10006607892B29F46FEF70E08EE00E94410297
:100A2000E114F10409F452CF0E945201882309F421
:100A30004DCF0E9400004ACF0E94170689819A81FB
:100A40009093F9018093F8018B819C819093FB0135
:100A50008093FA018D819E819093FD018093FC012A
:100A60001A8219821C821B82A9CF8091F801909171
:100A7000F901009711F00C94170608952F923F92F8
:100A80004F925F926F927F928F929F92AF92BF929E
:100A9000CF92DF92EF92FF920F931F93CF93DF934A
:100AA000CDB7DEB7CA1BDB0B0FB6F894DEBF0FBEA7
:100AB000CDBF09942A88398848885F846E847D84F4
:100AC0008C849B84AA84B984C884DF80EE80FD80F6
:100AD0000C811B81AA81B981CE0FD11D0FB6F8946C
:100AE000DEBF0FBECDBFED010895EE0FFF1F0590D5
:100AF000F491E02D09940F931F93CF93DF938230ED
:100B0000910510F482E090E0E0910002F091010282
:100B100030E020E0B0E0A0E0309799F421153105F5
:100B200009F44AC0281B390B24303105D8F58A81D5
:100B30009B816115710589F1FB0193838283FE011D
:100B400011C0408151810281138148175907E0F09B
:100B50004817590799F4109761F012960C93129761
:100B600013961C933296CF01DF91CF911F910F9175
:100B700008950093000210930102F4CF211531056E
:100B800051F04217530738F0A901DB019A01BD016A
:100B9000DF01F801C1CFEF01F9CF909301028093FB
:100BA0000002CDCFFE01E20FF31F819391932250FB
:100BB000310939832883D7CF2091FE013091FF017D
:100BC000232B41F420910201309103013093FF0166
:100BD0002093FE0120910001309101012115310582
:100BE00041F42DB73EB74091040150910501241BFB
:100BF000350BE091FE01F091FF01E217F307A0F43D
:100C00002E1B3F0B2817390778F0AC014E5F5F4F62
:100C10002417350748F04E0F5F1F5093FF01409394
:100C2000FE01819391939FCFF0E0E0E09CCFCF93C2
:100C3000DF930097E9F0FC01329713821282A091B2
:100C40000002B0910102ED0130E020E01097A1F424
:100C500020813181820F931F2091FE013091FF018D
:100C60002817390709F061C0F093FF01E093FE01F6
:100C7000DF91CF910895EA01CE17DF07E8F54A81A9
:100C80005B819E0141155105B1F7E901FB83EA83C0
:100C900049915991C40FD51FEC17FD0761F480816C
:100CA00091810296840F951FE9019983888382813F
:100CB00093819B838A83F0E0E0E012968D919C9172
:100CC00013970097B9F52D913C911197CD0102969C
:100CD000820F931F2091FE013091FF0128173907E1
:100CE00039F6309751F51092010210920002B0933C
:100CF000FF01A093FE01BCCFD383C2834081518109
:100D0000840F951FC817D90761F44E5F5F4F888124
:100D10009981480F591F518340838A819B81938316
:100D200082832115310509F0B0CFF0930102E093E1
:100D300000029ECFFD01DC01C0CF13821282D7CF0B
:100D4000B0E0A0E0E6EAF6E00C9440058C010097E4
:100D500051F4CB010E947B058C01C801CDB7DEB7F1
:100D6000E0E10C945C05FC01E60FF71F9C012250AA
:100D70003109E217F30708F49DC0D901CD91DC9148
:100D80001197C617D70798F0C530D10530F3CE01BB
:100D900004978617970708F3C61BD70B2297C193B2
:100DA000D1936D937C93CF010E941706D6CF5B0140
:100DB000AC1ABD0A4C018C0E9D1EA0910002B09190
:100DC0000102512C412CF12CE12C109731F580912E
:100DD000FE019091FF018815990509F05CC0461647
:100DE000570608F058C080910001909101010097CA
:100DF00041F48DB79EB74091040150910501841BC9
:100E0000950BE817F90708F055C0F093FF01E09340
:100E1000FE01F90171836083A0CF8D919C911197A0
:100E200012966C90129713967C901397A815B9059B
:100E300059F56C0142E0C40ED11CCA14DB0420F148
:100E4000AC014A195B09DA011296159780F06282AB
:100E5000738251834083D9016D937C93E114F10433
:100E600071F0D7011396FC93EE93129776CF2296EA
:100E70008C0F9D1FF90191838083F301EFCFF093D5
:100E80000102E093000269CF4816590608F42C01CC
:100E90007D01D3019ACFCB010E947B057C01009795
:100EA00049F0AE01B8010E945D07C8010E94170613
:100EB000870153CF10E000E050CFFB01DC0102C0FE
:100EC00001900D9241505040D8F70895FB01DC018C
:100ED0008D91019080190110D9F3990B0895FB01B0
:100EE000DC0101900D920020E1F7089510E0CDE5BE
:100EF000D0E004C0FE010E9475052196CE35D107D1
:060F0000C9F7F894FFCFD1
:100F0600000002028000000000008801A800D50051
:100F1600D5014601E400380153696C616B616E20AE
:100F26006B6574696B2027702720756E74756B204E
:100F36006D656D757461722C27732720756E7475D7
:100F46006B2062657268656E7469000D0A00700038
:020F5600730026
:00000001FF
